{
  "contractName": "Product",
  "abi": [
    {
      "inputs": [],
      "stateMutability": "nonpayable",
      "type": "constructor"
    },
    {
      "anonymous": false,
      "inputs": [
        {
          "indexed": false,
          "internalType": "address",
          "name": "productOwnerAddress",
          "type": "address"
        },
        {
          "indexed": false,
          "internalType": "string",
          "name": "productOwnerName",
          "type": "string"
        },
        {
          "indexed": false,
          "internalType": "string",
          "name": "productName",
          "type": "string"
        },
        {
          "indexed": false,
          "internalType": "uint256",
          "name": "creationDate",
          "type": "uint256"
        }
      ],
      "name": "ReturnValue",
      "type": "event"
    },
    {
      "inputs": [],
      "name": "close",
      "outputs": [],
      "stateMutability": "nonpayable",
      "type": "function"
    },
    {
      "inputs": [
        {
          "internalType": "string",
          "name": "_productOwnerName",
          "type": "string"
        },
        {
          "internalType": "string",
          "name": "_productName",
          "type": "string"
        }
      ],
      "name": "addProduct",
      "outputs": [],
      "stateMutability": "nonpayable",
      "type": "function"
    },
    {
      "inputs": [],
      "name": "getAllProductIds",
      "outputs": [
        {
          "internalType": "uint256[]",
          "name": "",
          "type": "uint256[]"
        }
      ],
      "stateMutability": "view",
      "type": "function",
      "constant": true
    },
    {
      "inputs": [
        {
          "internalType": "uint256",
          "name": "_productId",
          "type": "uint256"
        }
      ],
      "name": "getProductFromProductId",
      "outputs": [
        {
          "internalType": "address",
          "name": "",
          "type": "address"
        },
        {
          "internalType": "string",
          "name": "",
          "type": "string"
        },
        {
          "internalType": "string",
          "name": "",
          "type": "string"
        },
        {
          "internalType": "uint256",
          "name": "",
          "type": "uint256"
        }
      ],
      "stateMutability": "view",
      "type": "function",
      "constant": true
    },
    {
      "inputs": [],
      "name": "getProductCount",
      "outputs": [
        {
          "internalType": "uint256",
          "name": "productCount",
          "type": "uint256"
        }
      ],
      "stateMutability": "view",
      "type": "function",
      "constant": true
    },
    {
      "inputs": [
        {
          "internalType": "uint256",
          "name": "_productId",
          "type": "uint256"
        },
        {
          "internalType": "address",
          "name": "_productOwnerAddress",
          "type": "address"
        },
        {
          "internalType": "string",
          "name": "_productName",
          "type": "string"
        }
      ],
      "name": "isProduct",
      "outputs": [
        {
          "internalType": "bool",
          "name": "isIndeed",
          "type": "bool"
        }
      ],
      "stateMutability": "view",
      "type": "function",
      "constant": true
    }
  ],
  "bytecode": "0x608060405234801561001057600080fd5b50336000806101000a81548173ffffffffffffffffffffffffffffffffffffffff021916908373ffffffffffffffffffffffffffffffffffffffff160217905550635e23b7b16001819055506000600281905550610bc6806100736000396000f3fe608060405234801561001057600080fd5b50600436106100625760003560e01c806343d726d6146100675780634a348da914610071578063663c01af1461008f5780639919cd0d146100ee578063ca2efb55146101eb578063d6c7bdbe1461033d575b600080fd5b61006f61048a565b005b61007961051d565b6040518082815260200191505060405180910390f35b61009761052a565b6040518080602001828103825283818151815260200191508051906020019060200280838360005b838110156100da5780820151818401526020810190506100bf565b505050509050019250505060405180910390f35b6101d16004803603606081101561010457600080fd5b8101908080359060200190929190803573ffffffffffffffffffffffffffffffffffffffff1690602001909291908035906020019064010000000081111561014b57600080fd5b82018360208201111561015d57600080fd5b8035906020019184600183028401116401000000008311171561017f57600080fd5b91908080601f016020809104026020016040519081016040528093929190818152602001838380828437600081840152601f19601f8201169050808301925050505050505091929192905050506105db565b604051808215151515815260200191505060405180910390f35b61033b6004803603604081101561020157600080fd5b810190808035906020019064010000000081111561021e57600080fd5b82018360208201111561023057600080fd5b8035906020019184600183028401116401000000008311171561025257600080fd5b91908080601f016020809104026020016040519081016040528093929190818152602001838380828437600081840152601f19601f820116905080830192505050505050509192919290803590602001906401000000008111156102b557600080fd5b8201836020820111156102c757600080fd5b803590602001918460018302840111640100000000831117156102e957600080fd5b91908080601f016020809104026020016040519081016040528093929190818152602001838380828437600081840152601f19601f8201169050808301925050505050505091929192905050506107e2565b005b6103696004803603602081101561035357600080fd5b8101908080359060200190929190505050610923565b604051808573ffffffffffffffffffffffffffffffffffffffff1673ffffffffffffffffffffffffffffffffffffffff1681526020018060200180602001848152602001838103835286818151815260200191508051906020019080838360005b838110156103e55780820151818401526020810190506103ca565b50505050905090810190601f1680156104125780820380516001836020036101000a031916815260200191505b50838103825285818151815260200191508051906020019080838360005b8381101561044b578082015181840152602081019050610430565b50505050905090810190601f1680156104785780820380516001836020036101000a031916815260200191505b50965050505050505060405180910390f35b6000809054906101000a900473ffffffffffffffffffffffffffffffffffffffff1673ffffffffffffffffffffffffffffffffffffffff163373ffffffffffffffffffffffffffffffffffffffff16146104e357600080fd5b6000809054906101000a900473ffffffffffffffffffffffffffffffffffffffff1673ffffffffffffffffffffffffffffffffffffffff16ff5b6000600480549050905090565b60606000809054906101000a900473ffffffffffffffffffffffffffffffffffffffff1673ffffffffffffffffffffffffffffffffffffffff163373ffffffffffffffffffffffffffffffffffffffff161461058557600080fd5b60048054806020026020016040519081016040528092919081815260200182805480156105d157602002820191906000526020600020905b8154815260200190600101908083116105bd575b5050505050905090565b600082604051602001808273ffffffffffffffffffffffffffffffffffffffff1673ffffffffffffffffffffffffffffffffffffffff1660601b8152601401915050604051602081830303815290604052805190602001206003600086815260200190815260200160002060000160009054906101000a900473ffffffffffffffffffffffffffffffffffffffff16604051602001808273ffffffffffffffffffffffffffffffffffffffff1673ffffffffffffffffffffffffffffffffffffffff1660601b81526014019150506040516020818303038152906040528051906020012014156107d657816040516020018082805190602001908083835b602083106106fc57805182526020820191506020810190506020830392506106d9565b6001836020036101000a038019825116818451168082178552505050505050905001915050604051602081830303815290604052805190602001206003600086815260200190815260200160002060020160405160200180828054600181600116156101000203166002900480156107ab5780601f106107895761010080835404028352918201916107ab565b820191906000526020600020905b815481529060010190602001808311610797575b50509150506040516020818303038152906040528051906020012014156107d557600190506107db565b5b600090505b9392505050565b6001544210156107f157600080fd5b6000809054906101000a900473ffffffffffffffffffffffffffffffffffffffff1673ffffffffffffffffffffffffffffffffffffffff163373ffffffffffffffffffffffffffffffffffffffff161461084a57600080fd5b60006003600060016002540181526020019081526020016000209050338160000160006101000a81548173ffffffffffffffffffffffffffffffffffffffff021916908373ffffffffffffffffffffffffffffffffffffffff160217905550828160010190805190602001906108c1929190610aeb565b50818160020190805190602001906108da929190610aeb565b5042816003018190555060046001600254019080600181540180825580915050600190039060005260206000200160009091909190915055600160025401600281905550505050565b600060608060006003600086815260200190815260200160002060000160009054906101000a900473ffffffffffffffffffffffffffffffffffffffff1660036000878152602001908152602001600020600101600360008881526020019081526020016000206002016003600089815260200190815260200160002060030154828054600181600116156101000203166002900480601f016020809104026020016040519081016040528092919081815260200182805460018160011615610100020316600290048015610a395780601f10610a0e57610100808354040283529160200191610a39565b820191906000526020600020905b815481529060010190602001808311610a1c57829003601f168201915b50505050509250818054600181600116156101000203166002900480601f016020809104026020016040519081016040528092919081815260200182805460018160011615610100020316600290048015610ad55780601f10610aaa57610100808354040283529160200191610ad5565b820191906000526020600020905b815481529060010190602001808311610ab857829003601f168201915b5050505050915093509350935093509193509193565b828054600181600116156101000203166002900490600052602060002090601f016020900481019282601f10610b2c57805160ff1916838001178555610b5a565b82800160010185558215610b5a579182015b82811115610b59578251825591602001919060010190610b3e565b5b509050610b679190610b6b565b5090565b610b8d91905b80821115610b89576000816000905550600101610b71565b5090565b9056fea2646970667358221220f934b61a6f2c15920da1f18ec530bbf678e9320fb9e581684f50e43afe8064d964736f6c63430006010033",
  "source": "pragma solidity >=0.6.1;\r\n//pragma solidity >=0.5.0  <0.6.0;\r\n//pragma experimental ABIEncoderV2;\r\n\r\ncontract Product {\r\n    address payable private owner;\r\n    uint256 private startTime;\r\n    uint256 private productId;\r\n\r\n    event ReturnValue(address productOwnerAddress, string productOwnerName, string productName, uint creationDate);\r\n\r\n    struct ProductInformation{\r\n        address productOwnerAddress;\r\n        string productOwnerName;\r\n        string productName;\r\n        uint creationDate;\r\n    }\r\n\r\n    mapping (uint256 => ProductInformation) productInfos;\r\n\r\n    uint256[] productInfoList;\r\n\r\n    modifier onlyWhileOpen() {\r\n        require(block.timestamp >= startTime);\r\n        _;\r\n    }\r\n\r\n    modifier onlyOwner () {\r\n        require(msg.sender == owner);\r\n        _;\r\n    }\r\n\r\n    constructor() public {\r\n        owner = msg.sender;\r\n        startTime = 1579399089;\r\n        productId = 0;\r\n    }\r\n\r\n    function close() public onlyOwner { //onlyOwner is custom modifier\r\n        selfdestruct(owner);  // `owner` is the owners address\r\n    }\r\n\r\n    function addProduct(string memory _productOwnerName, string memory _productName) public onlyWhileOpen onlyOwner{\r\n\r\n        Product.ProductInformation storage productInfo = productInfos[productId + 1];\r\n\r\n        productInfo.productOwnerAddress = msg.sender;\r\n        productInfo.productOwnerName = _productOwnerName;\r\n        productInfo.productName = _productName;\r\n        productInfo.creationDate = now;\r\n\r\n        productInfoList.push(productId + 1);\r\n        productId = productId + 1;\r\n    }\r\n\r\n\r\n    function getAllProductIds() public view onlyOwner returns(uint256[] memory){\r\n        return productInfoList;\r\n    }\r\n\r\n    function getProductFromProductId(uint256  _productId) public view returns(address , string memory, string memory, uint ){\r\n        return (productInfos[_productId].productOwnerAddress,\r\n        productInfos[_productId].productOwnerName,\r\n        productInfos[_productId].productName,\r\n        productInfos[_productId].creationDate);\r\n    }\r\n\r\n    function getProductCount() public view returns(uint productCount) {\r\n        return productInfoList.length;\r\n    }\r\n\r\n    function isProduct(uint256 _productId, address _productOwnerAddress, string memory _productName) public view returns(bool isIndeed) {\r\n\r\n        if(keccak256(abi.encodePacked(productInfos[_productId].productOwnerAddress)) == keccak256(abi.encodePacked(_productOwnerAddress)) ){\r\n            if(keccak256(abi.encodePacked(productInfos[_productId].productName)) == keccak256(abi.encodePacked(_productName)) ){\r\n                return true;\r\n            }\r\n        }\r\n        return false;\r\n    }\r\n}",
  "sourcePath": "C:\\Users\\jamha\\WebstormProjects\\ProductValidation\\truffle\\contracts\\Product.sol",
  "compiler": {
    "name": "solc",
    "version": "0.6.1+commit.e6f7d5a4.Emscripten.clang"
  },
  "schemaVersion": "3.2.0",
  "updatedAt": "2020-06-27T20:26:35.464Z",
  "networkType": "ethereum",
  "devdoc": {
    "methods": {}
  },
  "userdoc": {
    "methods": {}
  }
}