{
  "contractName": "Deal",
  "abi": [
    {
      "inputs": [
        {
          "internalType": "address",
          "name": "_buyerAddr",
          "type": "address"
        }
      ],
      "stateMutability": "payable",
      "type": "constructor",
      "payable": true
    },
    {
      "anonymous": false,
      "inputs": [
        {
          "indexed": false,
          "internalType": "address",
          "name": "buyer",
          "type": "address"
        },
        {
          "indexed": false,
          "internalType": "string",
          "name": "name",
          "type": "string"
        }
      ],
      "name": "BuyerRegistered",
      "type": "event"
    },
    {
      "anonymous": false,
      "inputs": [
        {
          "indexed": false,
          "internalType": "address",
          "name": "buyer",
          "type": "address"
        },
        {
          "indexed": false,
          "internalType": "uint256",
          "name": "invoiceno",
          "type": "uint256"
        },
        {
          "indexed": false,
          "internalType": "uint256",
          "name": "orderno",
          "type": "uint256"
        },
        {
          "indexed": false,
          "internalType": "uint256",
          "name": "delivery_date",
          "type": "uint256"
        },
        {
          "indexed": false,
          "internalType": "address",
          "name": "courier",
          "type": "address"
        }
      ],
      "name": "InvoiceSent",
      "type": "event"
    },
    {
      "anonymous": false,
      "inputs": [
        {
          "indexed": false,
          "internalType": "address",
          "name": "buyer",
          "type": "address"
        },
        {
          "indexed": false,
          "internalType": "uint256",
          "name": "invoiceno",
          "type": "uint256"
        },
        {
          "indexed": false,
          "internalType": "uint256",
          "name": "orderno",
          "type": "uint256"
        },
        {
          "indexed": false,
          "internalType": "uint256",
          "name": "real_delivey_date",
          "type": "uint256"
        },
        {
          "indexed": false,
          "internalType": "address",
          "name": "courier",
          "type": "address"
        }
      ],
      "name": "OrderDelivered",
      "type": "event"
    },
    {
      "anonymous": false,
      "inputs": [
        {
          "indexed": false,
          "internalType": "address",
          "name": "buyer",
          "type": "address"
        },
        {
          "indexed": false,
          "internalType": "string",
          "name": "goods",
          "type": "string"
        },
        {
          "indexed": false,
          "internalType": "uint256",
          "name": "quantity",
          "type": "uint256"
        },
        {
          "indexed": false,
          "internalType": "uint256",
          "name": "orderno",
          "type": "uint256"
        }
      ],
      "name": "OrderSent",
      "type": "event"
    },
    {
      "anonymous": false,
      "inputs": [
        {
          "indexed": false,
          "internalType": "address",
          "name": "buyer",
          "type": "address"
        },
        {
          "indexed": false,
          "internalType": "uint256",
          "name": "orderno",
          "type": "uint256"
        },
        {
          "indexed": false,
          "internalType": "uint256",
          "name": "price",
          "type": "uint256"
        },
        {
          "indexed": false,
          "internalType": "int8",
          "name": "ttype",
          "type": "int8"
        }
      ],
      "name": "PriceSent",
      "type": "event"
    },
    {
      "anonymous": false,
      "inputs": [
        {
          "indexed": false,
          "internalType": "address",
          "name": "buyer",
          "type": "address"
        },
        {
          "indexed": false,
          "internalType": "uint256",
          "name": "orderno",
          "type": "uint256"
        },
        {
          "indexed": false,
          "internalType": "uint256",
          "name": "value",
          "type": "uint256"
        },
        {
          "indexed": false,
          "internalType": "uint256",
          "name": "now",
          "type": "uint256"
        }
      ],
      "name": "SafepaySent",
      "type": "event"
    },
    {
      "inputs": [],
      "name": "buyerAddr",
      "outputs": [
        {
          "internalType": "address",
          "name": "",
          "type": "address"
        }
      ],
      "stateMutability": "view",
      "type": "function",
      "constant": true
    },
    {
      "inputs": [],
      "name": "owner",
      "outputs": [
        {
          "internalType": "address",
          "name": "",
          "type": "address"
        }
      ],
      "stateMutability": "view",
      "type": "function",
      "constant": true
    },
    {
      "inputs": [
        {
          "internalType": "string",
          "name": "goods",
          "type": "string"
        },
        {
          "internalType": "uint256",
          "name": "quantity",
          "type": "uint256"
        }
      ],
      "name": "sendOrder",
      "outputs": [],
      "stateMutability": "payable",
      "type": "function",
      "payable": true
    },
    {
      "inputs": [
        {
          "internalType": "uint256",
          "name": "number",
          "type": "uint256"
        }
      ],
      "name": "queryOrder",
      "outputs": [
        {
          "internalType": "address",
          "name": "buyer",
          "type": "address"
        },
        {
          "internalType": "string",
          "name": "goods",
          "type": "string"
        },
        {
          "internalType": "uint256",
          "name": "quantity",
          "type": "uint256"
        },
        {
          "internalType": "uint256",
          "name": "price",
          "type": "uint256"
        },
        {
          "internalType": "uint256",
          "name": "safepay",
          "type": "uint256"
        },
        {
          "internalType": "uint256",
          "name": "delivery_price",
          "type": "uint256"
        },
        {
          "internalType": "uint256",
          "name": "delivey_safepay",
          "type": "uint256"
        }
      ],
      "stateMutability": "view",
      "type": "function",
      "constant": true
    },
    {
      "inputs": [
        {
          "internalType": "uint256",
          "name": "orderno",
          "type": "uint256"
        },
        {
          "internalType": "uint256",
          "name": "price",
          "type": "uint256"
        },
        {
          "internalType": "int8",
          "name": "ttype",
          "type": "int8"
        }
      ],
      "name": "sendPrice",
      "outputs": [],
      "stateMutability": "payable",
      "type": "function",
      "payable": true
    },
    {
      "inputs": [
        {
          "internalType": "uint256",
          "name": "orderno",
          "type": "uint256"
        }
      ],
      "name": "sendSafepay",
      "outputs": [],
      "stateMutability": "payable",
      "type": "function",
      "payable": true
    },
    {
      "inputs": [
        {
          "internalType": "uint256",
          "name": "orderno",
          "type": "uint256"
        },
        {
          "internalType": "uint256",
          "name": "delivery_date",
          "type": "uint256"
        },
        {
          "internalType": "address",
          "name": "courier",
          "type": "address"
        }
      ],
      "name": "sendInvoice",
      "outputs": [],
      "stateMutability": "payable",
      "type": "function",
      "payable": true
    },
    {
      "inputs": [
        {
          "internalType": "uint256",
          "name": "invoiceno",
          "type": "uint256"
        }
      ],
      "name": "getInvoice",
      "outputs": [
        {
          "internalType": "address",
          "name": "buyer",
          "type": "address"
        },
        {
          "internalType": "uint256",
          "name": "orderno",
          "type": "uint256"
        },
        {
          "internalType": "uint256",
          "name": "delivery_date",
          "type": "uint256"
        },
        {
          "internalType": "address",
          "name": "courier",
          "type": "address"
        }
      ],
      "stateMutability": "view",
      "type": "function",
      "constant": true
    },
    {
      "inputs": [
        {
          "internalType": "uint256",
          "name": "invoiceno",
          "type": "uint256"
        },
        {
          "internalType": "uint256",
          "name": "timestamp",
          "type": "uint256"
        }
      ],
      "name": "delivery",
      "outputs": [],
      "stateMutability": "payable",
      "type": "function",
      "payable": true
    },
    {
      "inputs": [],
      "name": "health",
      "outputs": [
        {
          "internalType": "string",
          "name": "",
          "type": "string"
        }
      ],
      "stateMutability": "pure",
      "type": "function",
      "constant": true
    }
  ],
  "bytecode": "0x60806040526040516115713803806115718339818101604052602081101561002657600080fd5b8101908080519060200190929190505050336000806101000a81548173ffffffffffffffffffffffffffffffffffffffff021916908373ffffffffffffffffffffffffffffffffffffffff16021790555080600160006101000a81548173ffffffffffffffffffffffffffffffffffffffff021916908373ffffffffffffffffffffffffffffffffffffffff160217905550506114a9806100c86000396000f3fe6080604052600436106100915760003560e01c8063a877f21511610059578063a877f21514610336578063c3a1e5b31461038d578063c5cc426a146103d2578063d4f12597146104dc578063fe2852481461053457610091565b80633a23cc0a146100965780636ca1608b146101525780637633a22c1461018a5780638da5cb5b1461021a5780639670d69914610271575b600080fd5b3480156100a257600080fd5b506100cf600480360360208110156100b957600080fd5b8101908080359060200190929190505050610562565b604051808573ffffffffffffffffffffffffffffffffffffffff1673ffffffffffffffffffffffffffffffffffffffff1681526020018481526020018381526020018273ffffffffffffffffffffffffffffffffffffffff1673ffffffffffffffffffffffffffffffffffffffff16815260200194505050505060405180910390f35b6101886004803603604081101561016857600080fd5b810190808035906020019092919080359060200190929190505050610630565b005b34801561019657600080fd5b5061019f6108dd565b6040518080602001828103825283818151815260200191508051906020019080838360005b838110156101df5780820151818401526020810190506101c4565b50505050905090810190601f16801561020c5780820380516001836020036101000a031916815260200191505b509250505060405180910390f35b34801561022657600080fd5b5061022f61091a565b604051808273ffffffffffffffffffffffffffffffffffffffff1673ffffffffffffffffffffffffffffffffffffffff16815260200191505060405180910390f35b6103346004803603604081101561028757600080fd5b81019080803590602001906401000000008111156102a457600080fd5b8201836020820111156102b657600080fd5b803590602001918460018302840111640100000000831117156102d857600080fd5b91908080601f016020809104026020016040519081016040528093929190818152602001838380828437600081840152601f19601f8201169050808301925050505050505091929192908035906020019092919050505061093f565b005b34801561034257600080fd5b5061034b610c90565b604051808273ffffffffffffffffffffffffffffffffffffffff1673ffffffffffffffffffffffffffffffffffffffff16815260200191505060405180910390f35b6103d0600480360360608110156103a357600080fd5b810190808035906020019092919080359060200190929190803560000b9060200190929190505050610cb6565b005b3480156103de57600080fd5b5061040b600480360360208110156103f557600080fd5b8101908080359060200190929190505050610e7f565b604051808873ffffffffffffffffffffffffffffffffffffffff1673ffffffffffffffffffffffffffffffffffffffff16815260200180602001878152602001868152602001858152602001848152602001838152602001828103825288818151815260200191508051906020019080838360005b8381101561049b578082015181840152602081019050610480565b50505050905090810190601f1680156104c85780820380516001836020036101000a031916815260200191505b509850505050505050505060405180910390f35b610532600480360360608110156104f257600080fd5b810190808035906020019092919080359060200190929190803573ffffffffffffffffffffffffffffffffffffffff16906020019092919050505061101f565b005b6105606004803603602081101561054a57600080fd5b8101908080359060200190929190505050611271565b005b6000806000806003600086815260200190815260200160002060020160009054906101000a900460ff1661059557600080fd5b6000600360008781526020019081526020016000209050600060026000836000015481526020019081526020016000209050600160009054906101000a900473ffffffffffffffffffffffffffffffffffffffff16816002015482600501600401548360050160000160009054906101000a900473ffffffffffffffffffffffffffffffffffffffff16955095509550955050509193509193565b6003600083815260200190815260200160002060020160009054906101000a900460ff1661065d57600080fd5b60006003600084815260200190815260200160002090506000600260008360000154815260200190815260200160002090503373ffffffffffffffffffffffffffffffffffffffff168160050160000160009054906101000a900473ffffffffffffffffffffffffffffffffffffffff1673ffffffffffffffffffffffffffffffffffffffff16146106ee57600080fd5b7f587b8bd23b43f29f1f6f1d2d4306080dbcc8f78f1ec918c6812b33001fefc990600160009054906101000a900473ffffffffffffffffffffffffffffffffffffffff16858360020154868560050160000160009054906101000a900473ffffffffffffffffffffffffffffffffffffffff16604051808673ffffffffffffffffffffffffffffffffffffffff1673ffffffffffffffffffffffffffffffffffffffff1681526020018581526020018481526020018381526020018273ffffffffffffffffffffffffffffffffffffffff1673ffffffffffffffffffffffffffffffffffffffff1681526020019550505050505060405180910390a160008060009054906101000a900473ffffffffffffffffffffffffffffffffffffffff1690508073ffffffffffffffffffffffffffffffffffffffff166108fc83600401549081150290604051600060405180830381858888f1935050505015801561085a573d6000803e3d6000fd5b5060008260050160000160009054906101000a900473ffffffffffffffffffffffffffffffffffffffff1690508073ffffffffffffffffffffffffffffffffffffffff166108fc84600501600201549081150290604051600060405180830381858888f193505050501580156108d4573d6000803e3d6000fd5b50505050505050565b60606040518060400160405280600781526020017f72756e6e696e6700000000000000000000000000000000000000000000000000815250905090565b6000809054906101000a900473ffffffffffffffffffffffffffffffffffffffff1681565b600160009054906101000a900473ffffffffffffffffffffffffffffffffffffffff1673ffffffffffffffffffffffffffffffffffffffff163373ffffffffffffffffffffffffffffffffffffffff161461099957600080fd5b6004600081548092919060010191905055506040518060e00160405280838152602001828152602001600454815260200160008152602001600081526020016040518060e00160405280600073ffffffffffffffffffffffffffffffffffffffff1681526020016000815260200160008152602001600073ffffffffffffffffffffffffffffffffffffffff1681526020016000815260200160008152602001600015158152508152602001600115158152506002600060045481526020019081526020016000206000820151816000019080519060200190610a7d9291906113ce565b506020820151816001015560408201518160020155606082015181600301556080820151816004015560a08201518160050160008201518160000160006101000a81548173ffffffffffffffffffffffffffffffffffffffff021916908373ffffffffffffffffffffffffffffffffffffffff160217905550602082015181600101556040820151816002015560608201518160030160006101000a81548173ffffffffffffffffffffffffffffffffffffffff021916908373ffffffffffffffffffffffffffffffffffffffff1602179055506080820151816004015560a0820151816005015560c08201518160060160006101000a81548160ff021916908315150217905550505060c082015181600c0160006101000a81548160ff0219169083151502179055509050507fb7e953e9d5dc29b2595c1ea82eed1d21925712de892f26dd7323f0040bf3f59c338383600454604051808573ffffffffffffffffffffffffffffffffffffffff1673ffffffffffffffffffffffffffffffffffffffff16815260200180602001848152602001838152602001828103825285818151815260200191508051906020019080838360005b83811015610c4f578082015181840152602081019050610c34565b50505050905090810190601f168015610c7c5780820380516001836020036101000a031916815260200191505b509550505050505060405180910390a15050565b600160009054906101000a900473ffffffffffffffffffffffffffffffffffffffff1681565b6000809054906101000a900473ffffffffffffffffffffffffffffffffffffffff1673ffffffffffffffffffffffffffffffffffffffff163373ffffffffffffffffffffffffffffffffffffffff1614610d0f57600080fd5b60026000848152602001908152602001600020600c0160009054906101000a900460ff16610d3c57600080fd5b60018160000b1480610d51575060028160000b145b610d5a57600080fd5b60018160000b1415610d8657816002600085815260200190815260200160002060030181905550610dd7565b81600260008581526020019081526020016000206005016001018190555060016002600085815260200190815260200160002060050160060160006101000a81548160ff0219169083151502179055505b7faf54ca7c1ecf75ea1c151f265e9ab3eeecb27d19e8d3ec6b7e199414dd0c1ed6600160009054906101000a900473ffffffffffffffffffffffffffffffffffffffff16848484604051808573ffffffffffffffffffffffffffffffffffffffff1673ffffffffffffffffffffffffffffffffffffffff1681526020018481526020018381526020018260000b60000b815260200194505050505060405180910390a1505050565b60006060600080600080600060026000898152602001908152602001600020600c0160009054906101000a900460ff16610eb857600080fd5b600160009054906101000a900473ffffffffffffffffffffffffffffffffffffffff16600260008a8152602001908152602001600020600001600260008b815260200190815260200160002060010154600260008c815260200190815260200160002060030154600260008d815260200190815260200160002060040154600260008e815260200190815260200160002060050160010154600260008f815260200190815260200160002060050160020154858054600181600116156101000203166002900480601f016020809104026020016040519081016040528092919081815260200182805460018160011615610100020316600290048015610fff5780601f10610fd457610100808354040283529160200191610fff565b820191906000526020600020905b815481529060010190602001808311610fe257829003601f168201915b505050505095509650965096509650965096509650919395979092949650565b60026000848152602001908152602001600020600c0160009054906101000a900460ff1661104c57600080fd5b3373ffffffffffffffffffffffffffffffffffffffff166000809054906101000a900473ffffffffffffffffffffffffffffffffffffffff1673ffffffffffffffffffffffffffffffffffffffff16146110a557600080fd5b6005600081548092919060010191905055506040518060600160405280848152602001600554815260200160011515815250600360006005548152602001908152602001600020600082015181600001556020820151816001015560408201518160020160006101000a81548160ff021916908315150217905550905050816002600085815260200190815260200160002060050160040181905550806002600085815260200190815260200160002060050160000160006101000a81548173ffffffffffffffffffffffffffffffffffffffff021916908373ffffffffffffffffffffffffffffffffffffffff1602179055507fbc1c01dc0d1e366f76a22e7db8af8028033bd0a521feaf529046a6bc413ce0f0600160009054906101000a900473ffffffffffffffffffffffffffffffffffffffff16600554858585604051808673ffffffffffffffffffffffffffffffffffffffff1673ffffffffffffffffffffffffffffffffffffffff1681526020018581526020018481526020018381526020018273ffffffffffffffffffffffffffffffffffffffff1673ffffffffffffffffffffffffffffffffffffffff1681526020019550505050505060405180910390a1505050565b60026000828152602001908152602001600020600c0160009054906101000a900460ff1661129e57600080fd5b3373ffffffffffffffffffffffffffffffffffffffff16600160009054906101000a900473ffffffffffffffffffffffffffffffffffffffff1673ffffffffffffffffffffffffffffffffffffffff16146112f857600080fd5b3460026000838152602001908152602001600020600501600101546002600084815260200190815260200160002060030154011461133557600080fd5b3460026000838152602001908152602001600020600401819055507f4ca09f9926d2e48ef31cb6b14dbda230c7420702b8a8f5b878dd572c593e99d233823442604051808573ffffffffffffffffffffffffffffffffffffffff1673ffffffffffffffffffffffffffffffffffffffff16815260200184815260200183815260200182815260200194505050505060405180910390a150565b828054600181600116156101000203166002900490600052602060002090601f016020900481019282601f1061140f57805160ff191683800117855561143d565b8280016001018555821561143d579182015b8281111561143c578251825591602001919060010190611421565b5b50905061144a919061144e565b5090565b61147091905b8082111561146c576000816000905550600101611454565b5090565b9056fea2646970667358221220eadc56ff66446016af29f02ac73ac784db1f8f3e04f31b1d553f6d859230a3ff64736f6c63430006010033",
  "source": "pragma solidity >=0.6.1;\r\n//pragma solidity ^0.5.11;\r\n\r\ncontract Deal {\r\n\r\n  address public owner;\r\n  address public buyerAddr;\r\n\r\n  struct Buyer {\r\n    address addr;\r\n    string name;\r\n\r\n    bool init;\r\n  }\r\n\r\n  struct Shipment {\r\n    address courier;\r\n    uint price;\r\n    uint safepay;\r\n    address payer;\r\n    uint date;\r\n    uint real_date;\r\n\r\n    bool init;\r\n  }\r\n\r\n  struct Order {\r\n    string goods;\r\n    uint quantity;\r\n    uint number;\r\n    uint price;\r\n    uint safepay;\r\n    Shipment shipment;\r\n\r\n    bool init;\r\n  }\r\n\r\n  // The Invoice struct\r\n  struct Invoice {\r\n    uint orderno;\r\n    uint number;\r\n\r\n    bool init;\r\n  }\r\n\r\n  // The mapping to store orders\r\n  mapping (uint => Order) orders;\r\n  // The mapping to store invoices\r\n  mapping (uint => Invoice) invoices;\r\n\r\n  uint orderseq;\r\n  uint invoiceseq;\r\n\r\n  // Event triggered for every registered buyer\r\n  event BuyerRegistered(address buyer, string name);\r\n\r\n  // Event triggered for every new order\r\n  event OrderSent(address buyer, string goods, uint quantity, uint orderno);\r\n\r\n  // Event triggerd when the order gets valued and wants to know the value of the payment\r\n  event PriceSent(address buyer, uint orderno, uint price, int8 ttype);\r\n\r\n  // Event trigger when the buyer performs the safepay\r\n  event SafepaySent(address buyer, uint orderno, uint value, uint now);\r\n\r\n  // Event triggered when the seller sends the invoice\r\n  event InvoiceSent(address buyer, uint invoiceno, uint orderno, uint delivery_date, address courier);\r\n\r\n  // Event triggered when the courie delives the order\r\n  event OrderDelivered(address buyer, uint invoiceno, uint orderno, uint real_delivey_date, address courier);\r\n\r\n  // The smart contract's constructor\r\n  constructor(address _buyerAddr) public payable {\r\n    // The seller is the contract's owner\r\n    owner = msg.sender;\r\n    buyerAddr = address(_buyerAddr);\r\n\r\n    //casting from address paylable to address\r\n    //address payable addr1 = msg.sender;\r\n    //address _address = address(addr1);\r\n\r\n    //casting from address to address payable\r\n    //address addr = msg.sender;\r\n    //address payable _address = address(uint160(addr));\r\n  }\r\n\r\n  // The function to send purchase orders\r\n  //   requires fee\r\n  //   Payable functions returns just the transaction object, with no custom field.\r\n  //   To get field values listen to OrderSent event.\r\n  function sendOrder(string memory goods, uint quantity) public payable {\r\n    // Accept orders just from buyer\r\n    require(msg.sender == buyerAddr);\r\n\r\n    // Increment the order sequence\r\n    orderseq++;\r\n\r\n    // Create the order register\r\n    orders[orderseq] = Order(goods, quantity, orderseq, 0, 0, Shipment(address(0), 0, 0, address(0), 0, 0, false), true);\r\n\r\n    // Trigger the event\r\n    emit OrderSent(msg.sender, goods, quantity, orderseq);\r\n  }\r\n\r\n  // The function to query orders by number\r\n  // Constant functions returns custom fields\r\n  function queryOrder(uint number) public view returns (\r\n      address buyer,\r\n      string memory goods,\r\n      uint quantity,\r\n      uint price,\r\n      uint safepay,\r\n      uint delivery_price,\r\n      uint delivey_safepay) {\r\n    // Validate the order number\r\n    require(orders[number].init);\r\n\r\n    // Return the order data\r\n    return(buyerAddr,\r\n        orders[number].goods,\r\n        orders[number].quantity,\r\n        orders[number].price,\r\n        orders[number].safepay,\r\n        orders[number].shipment.price,\r\n        orders[number].shipment.safepay);\r\n  }\r\n\r\n  // The function to send the price to pay for order\r\n  // Just the owner can call this function\r\n  // requires free\r\n  function sendPrice(uint orderno, uint price, int8 ttype) public payable {\r\n    // Only the owner can use this function\r\n    require(msg.sender == owner);\r\n\r\n    // Validate the order number\r\n    require(orders[orderno].init);\r\n\r\n    // Validate the type\r\n    // 1=order\r\n    // 2=shipment\r\n    require(ttype == 1 || ttype == 2);\r\n\r\n    if(ttype == 1){// Price for Order\r\n\r\n      // Update the order price\r\n      orders[orderno].price = price;\r\n\r\n    } else {// Price for Shipment\r\n\r\n      // Update the shipment price\r\n      orders[orderno].shipment.price = price;\r\n      orders[orderno].shipment.init = true;\r\n    }\r\n\r\n    // Trigger the event\r\n    emit PriceSent(buyerAddr, orderno, price, ttype);\r\n  }\r\n\r\n  // The function to send the value of order's price\r\n  //  This value will be blocked until the delivery of order\r\n  //  requires fee\r\n  function sendSafepay(uint orderno) public payable {\r\n    // Validate the order number\r\n    require(orders[orderno].init);\r\n\r\n    // Just the buyer can make safepay\r\n    require(buyerAddr == msg.sender);\r\n\r\n    // The order's value plus the shipment value must equal to msg.value\r\n    require((orders[orderno].price + orders[orderno].shipment.price) == msg.value);\r\n\r\n    orders[orderno].safepay = msg.value;\r\n\r\n    emit SafepaySent(msg.sender, orderno, msg.value, now);\r\n  }\r\n\r\n  // The function to send the invoice data\r\n  // requires fee\r\n  function sendInvoice(uint orderno, uint delivery_date, address courier) public payable {\r\n    // Validate the order number\r\n    require(orders[orderno].init);\r\n\r\n    // Just the seller can send the invoice\r\n    require(owner == msg.sender);\r\n\r\n    invoiceseq++;\r\n\r\n    // Create then Invoice instance and store it\r\n    invoices[invoiceseq] = Invoice(orderno, invoiceseq, true);\r\n\r\n    // Update the shipment data\r\n    orders[orderno].shipment.date = delivery_date;\r\n    orders[orderno].shipment.courier = courier;\r\n\r\n    // Trigger the event\r\n    emit InvoiceSent(buyerAddr, invoiceseq, orderno, delivery_date, courier);\r\n  }\r\n\r\n  // The function to get the sent invoice\r\n  //  requires no fee\r\n  function getInvoice(uint invoiceno) public view returns (\r\n      address buyer,\r\n      uint orderno,\r\n      uint delivery_date,\r\n      address courier){\r\n    // Validate the invoice number\r\n    require(invoices[invoiceno].init);\r\n\r\n    Invoice storage _invoice = invoices[invoiceno];\r\n    Order storage _order = orders[_invoice.orderno];\r\n\r\n    return (buyerAddr, _order.number, _order.shipment.date, _order.shipment.courier);\r\n  }\r\n\r\n  // The function to mark an order as delivered\r\n  function delivery(uint invoiceno, uint timestamp) public payable {\r\n    // Validate the invoice number\r\n    require(invoices[invoiceno].init);\r\n\r\n    Invoice storage _invoice = invoices[invoiceno];\r\n    Order storage _order = orders[_invoice.orderno];\r\n\r\n    // Just the courier can call this function\r\n    require(_order.shipment.courier == msg.sender);\r\n\r\n    emit OrderDelivered(buyerAddr, invoiceno, _order.number, timestamp, _order.shipment.courier);\r\n\r\n    // Payout the Order to the seller\r\n    //owner.transfer(_order.safepay);\r\n    address payable sellerAddress = address(uint160(owner));\r\n    sellerAddress.transfer(_order.safepay);\r\n\r\n    // Payout the Shipment to the courier\r\n    //_order.shipment.courier.transfer(_order.shipment.safepay);\r\n    address payable courierAddress = address(uint160(_order.shipment.courier));\r\n    courierAddress.transfer(_order.shipment.safepay);\r\n  }\r\n\r\n  function health() public pure returns (string memory) {\r\n    return \"running\";\r\n  }\r\n}",
  "sourcePath": "C:\\Users\\jamha\\WebstormProjects\\ProductValidation\\contracts\\Deal.sol",
  "compiler": {
    "name": "solc",
    "version": "0.6.1+commit.e6f7d5a4.Emscripten.clang"
  },
  "schemaVersion": "3.2.0",
  "updatedAt": "2020-06-30T12:52:09.788Z",
  "networkType": "ethereum",
  "devdoc": {
    "methods": {}
  },
  "userdoc": {
    "methods": {}
  }
}