{
  "contractName": "Product",
  "abi": [
    {
      "inputs": [],
      "stateMutability": "nonpayable",
      "type": "constructor"
    },
    {
      "anonymous": false,
      "inputs": [
        {
          "indexed": false,
          "internalType": "string",
          "name": "productOwnerName",
          "type": "string"
        },
        {
          "indexed": false,
          "internalType": "string",
          "name": "productName",
          "type": "string"
        },
        {
          "indexed": false,
          "internalType": "uint256",
          "name": "creationDate",
          "type": "uint256"
        }
      ],
      "name": "ReturnValue",
      "type": "event"
    },
    {
      "inputs": [],
      "name": "close",
      "outputs": [],
      "stateMutability": "nonpayable",
      "type": "function"
    },
    {
      "inputs": [
        {
          "internalType": "string",
          "name": "_productOwnerName",
          "type": "string"
        },
        {
          "internalType": "string",
          "name": "_productName",
          "type": "string"
        }
      ],
      "name": "addProduct",
      "outputs": [],
      "stateMutability": "nonpayable",
      "type": "function"
    },
    {
      "inputs": [],
      "name": "getAllProductIds",
      "outputs": [
        {
          "internalType": "uint256[]",
          "name": "",
          "type": "uint256[]"
        }
      ],
      "stateMutability": "view",
      "type": "function",
      "constant": true
    },
    {
      "inputs": [
        {
          "internalType": "uint256",
          "name": "_productId",
          "type": "uint256"
        }
      ],
      "name": "getProductFromProductId",
      "outputs": [
        {
          "internalType": "string",
          "name": "ownerName",
          "type": "string"
        },
        {
          "internalType": "string",
          "name": "productName",
          "type": "string"
        },
        {
          "internalType": "uint256",
          "name": "creationDate",
          "type": "uint256"
        }
      ],
      "stateMutability": "view",
      "type": "function",
      "constant": true
    },
    {
      "inputs": [],
      "name": "getProductCount",
      "outputs": [
        {
          "internalType": "uint256",
          "name": "productCount",
          "type": "uint256"
        }
      ],
      "stateMutability": "view",
      "type": "function",
      "constant": true
    },
    {
      "inputs": [
        {
          "internalType": "uint256",
          "name": "_productId",
          "type": "uint256"
        },
        {
          "internalType": "string",
          "name": "_productName",
          "type": "string"
        }
      ],
      "name": "isProduct",
      "outputs": [
        {
          "internalType": "bool",
          "name": "isIndeed",
          "type": "bool"
        }
      ],
      "stateMutability": "view",
      "type": "function",
      "constant": true
    }
  ],
  "bytecode": "0x608060405234801561001057600080fd5b50336000806101000a81548173ffffffffffffffffffffffffffffffffffffffff021916908373ffffffffffffffffffffffffffffffffffffffff160217905550426001819055506000600281905550610a0b8061006f6000396000f3fe608060405234801561001057600080fd5b50600436106100625760003560e01c806343d726d6146100675780634a348da914610071578063663c01af1461008f578063c17c7cbb146100ee578063ca2efb55146101cb578063d6c7bdbe1461031d575b600080fd5b61006f610437565b005b6100796104ca565b6040518082815260200191505060405180910390f35b6100976104d7565b6040518080602001828103825283818151815260200191508051906020019060200280838360005b838110156100da5780820151818401526020810190506100bf565b505050509050019250505060405180910390f35b6101b16004803603604081101561010457600080fd5b81019080803590602001909291908035906020019064010000000081111561012b57600080fd5b82018360208201111561013d57600080fd5b8035906020019184600183028401116401000000008311171561015f57600080fd5b91908080601f016020809104026020016040519081016040528093929190818152602001838380828437600081840152601f19601f820116905080830192505050505050509192919290505050610588565b604051808215151515815260200191505060405180910390f35b61031b600480360360408110156101e157600080fd5b81019080803590602001906401000000008111156101fe57600080fd5b82018360208201111561021057600080fd5b8035906020019184600183028401116401000000008311171561023257600080fd5b91908080601f016020809104026020016040519081016040528093929190818152602001838380828437600081840152601f19601f8201169050808301925050505050505091929192908035906020019064010000000081111561029557600080fd5b8201836020820111156102a757600080fd5b803590602001918460018302840111640100000000831117156102c957600080fd5b91908080601f016020809104026020016040519081016040528093929190818152602001838380828437600081840152601f19601f8201169050808301925050505050505091929192905050506106a5565b005b6103496004803603602081101561033357600080fd5b81019080803590602001909291905050506107a3565b604051808060200180602001848152602001838103835286818151815260200191508051906020019080838360005b83811015610393578082015181840152602081019050610378565b50505050905090810190601f1680156103c05780820380516001836020036101000a031916815260200191505b50838103825285818151815260200191508051906020019080838360005b838110156103f95780820151818401526020810190506103de565b50505050905090810190601f1680156104265780820380516001836020036101000a031916815260200191505b509550505050505060405180910390f35b6000809054906101000a900473ffffffffffffffffffffffffffffffffffffffff1673ffffffffffffffffffffffffffffffffffffffff163373ffffffffffffffffffffffffffffffffffffffff161461049057600080fd5b6000809054906101000a900473ffffffffffffffffffffffffffffffffffffffff1673ffffffffffffffffffffffffffffffffffffffff16ff5b6000600480549050905090565b60606000809054906101000a900473ffffffffffffffffffffffffffffffffffffffff1673ffffffffffffffffffffffffffffffffffffffff163373ffffffffffffffffffffffffffffffffffffffff161461053257600080fd5b600480548060200260200160405190810160405280929190818152602001828054801561057e57602002820191906000526020600020905b81548152602001906001019080831161056a575b5050505050905090565b6000816040516020018082805190602001908083835b602083106105c1578051825260208201915060208101905060208303925061059e565b6001836020036101000a038019825116818451168082178552505050505050905001915050604051602081830303815290604052805190602001206003600085815260200190815260200160002060010160405160200180828054600181600116156101000203166002900480156106705780601f1061064e576101008083540402835291820191610670565b820191906000526020600020905b81548152906001019060200180831161065c575b505091505060405160208183030381529060405280519060200120141561069a576001905061069f565b600090505b92915050565b6001544210156106b457600080fd5b6000809054906101000a900473ffffffffffffffffffffffffffffffffffffffff1673ffffffffffffffffffffffffffffffffffffffff163373ffffffffffffffffffffffffffffffffffffffff161461070d57600080fd5b6000600360006001600254018152602001908152602001600020905082816000019080519060200190610741929190610930565b508181600101908051906020019061075a929190610930565b5042816002018190555060046001600254019080600181540180825580915050600190039060005260206000200160009091909190915055600160025401600281905550505050565b606080600060036000858152602001908152602001600020600001600360008681526020019081526020016000206001016003600087815260200190815260200160002060020154828054600181600116156101000203166002900480601f0160208091040260200160405190810160405280929190818152602001828054600181600116156101000203166002900480156108805780601f1061085557610100808354040283529160200191610880565b820191906000526020600020905b81548152906001019060200180831161086357829003601f168201915b50505050509250818054600181600116156101000203166002900480601f01602080910402602001604051908101604052809291908181526020018280546001816001161561010002031660029004801561091c5780601f106108f15761010080835404028352916020019161091c565b820191906000526020600020905b8154815290600101906020018083116108ff57829003601f168201915b505050505091509250925092509193909250565b828054600181600116156101000203166002900490600052602060002090601f016020900481019282601f1061097157805160ff191683800117855561099f565b8280016001018555821561099f579182015b8281111561099e578251825591602001919060010190610983565b5b5090506109ac91906109b0565b5090565b6109d291905b808211156109ce5760008160009055506001016109b6565b5090565b9056fea2646970667358221220711276a2769cff6e59f46001f72bb89a4c0916a541bcca77962e3f1cd314cbb164736f6c63430006010033",
  "source": "pragma solidity >=0.6.1;\r\n//pragma solidity >=0.5.0  <0.6.0;\r\n//pragma experimental ABIEncoderV2;\r\n\r\ncontract Product {\r\n    address payable private owner;\r\n    uint256 private startTime;\r\n    uint256 private productId;\r\n\r\n    event ReturnValue(string productOwnerName, string productName, uint creationDate);\r\n\r\n    struct ProductInformation {\r\n        string productOwnerName;\r\n        string productName;\r\n        uint creationDate;\r\n    }\r\n\r\n    mapping(uint256 => ProductInformation) productInfos;\r\n\r\n    uint256[] productInfoList;\r\n\r\n    modifier onlyWhileOpen() {\r\n        require(block.timestamp >= startTime);\r\n        _;\r\n    }\r\n\r\n    modifier onlyOwner () {\r\n        require(msg.sender == owner);\r\n        _;\r\n    }\r\n\r\n    constructor() public {\r\n        owner = msg.sender;\r\n        startTime = now;\r\n        productId = 0;\r\n    }\r\n\r\n    function close() public onlyOwner {//onlyOwner is custom modifier\r\n        selfdestruct(owner);\r\n        // `owner` is the owners address\r\n    }\r\n\r\n    function addProduct(string memory _productOwnerName, string memory _productName) public onlyWhileOpen onlyOwner {\r\n\r\n        Product.ProductInformation storage productInfo = productInfos[productId + 1];\r\n\r\n        productInfo.productOwnerName = _productOwnerName;\r\n        productInfo.productName = _productName;\r\n        productInfo.creationDate = now;\r\n\r\n        productInfoList.push(productId + 1);\r\n        productId = productId + 1;\r\n    }\r\n\r\n\r\n    function getAllProductIds() public view onlyOwner returns (uint256[] memory){\r\n        return productInfoList;\r\n    }\r\n\r\n    function getProductFromProductId(uint256 _productId) public view returns (string memory ownerName, string memory productName, uint creationDate){\r\n        return (productInfos[_productId].productOwnerName,\r\n        productInfos[_productId].productName,\r\n        productInfos[_productId].creationDate);\r\n    }\r\n\r\n    function getProductCount() public view returns (uint productCount) {\r\n        return productInfoList.length;\r\n    }\r\n\r\n    function isProduct(uint256 _productId, string memory _productName) public view returns (bool isIndeed) {\r\n        if (keccak256(abi.encodePacked(productInfos[_productId].productName)) == keccak256(abi.encodePacked(_productName))) {\r\n            return true;\r\n        }\r\n        return false;\r\n    }\r\n}",
  "sourcePath": "C:\\Users\\jamha\\WebstormProjects\\ProductValidation\\contracts\\Product.sol",
  "compiler": {
    "name": "solc",
    "version": "0.6.1+commit.e6f7d5a4.Emscripten.clang"
  },
  "schemaVersion": "3.2.0",
  "updatedAt": "2020-06-30T12:52:09.991Z",
  "networkType": "ethereum",
  "devdoc": {
    "methods": {}
  },
  "userdoc": {
    "methods": {}
  }
}